:100000000C942A000C94C3000C9434000C9434001B
:100010000C9434000C9434000C9434000C94340090
:100020000C9434000C9434000C9434000C94340080
:100030000C9434000C9434000C9434000C94340070
:100040000C9434000C9434000C9434000C94340060
:100050000C94340011241FBECFE5D8E0DEBFCDBF25
:100060000E94EF000C9400010C9400008FEE8BBBFB
:100070008AEF90E00197F1F729B3206F84EC99E0C3
:100080000197F1F789B3806F281709F078C02B3FEB
:1000900081F02C3F18F4273F91F40EC02D3F19F04A
:1000A0002E3F69F403C025E030E06BC021E030E072
:1000B00068C029E030E065C02DE030E062C08FED1F
:1000C0008BBB8AEF90E00197F1F789B3806F8B3F8C
:1000D00081F08C3F18F4873F91F40EC08D3F19F0EA
:1000E0008E3F69F403C026E030E04BC022E030E0F0
:1000F00048C02AE030E045C02EE030E042C08FEB3F
:100100008BBB8AEF90E00197F1F789B3806F8B3F4B
:1001100081F08C3F18F4873F91F40EC08D3F19F0A9
:100120008E3F69F403C027E030E02BC023E030E0CD
:1001300028C02BE030E025C02FE030E022C08FE760
:100140008BBB8AEF90E00197F1F789B3806F8B3F0B
:1001500081F08C3F18F4873F91F40EC08D3F19F069
:100160008E3F69F403C028E030E00BC024E030E0AB
:1001700008C02CE030E005C020E130E002C020E003
:1001800030E0C90108951F920F920FB60F9211240B
:100190002F933F934F935F936F937F938F939F938F
:1001A000AF93BF93EF93FF930E94360088BB8FE01D
:1001B0008BBB80E593EC0197F1F718BAFF91EF91B3
:1001C000BF91AF919F918F917F916F915F914F916F
:1001D0003F912F910F900FBE0F901F9018958FEFAA
:1001E00087BB80EF8ABB8FE08BBB85B7826085BF02
:1001F00085B78E7F85BF8BB780648BBF7894FFCF28
:04020000F894FFCFA0
:00000001FF
